:100000000C944E000C9465000C9465000C946500F3
:100010000C9465000C9465000C9465000C946500CC
:100020000C9465000C9465000C9465000C946500BC
:100030000C9465000C9465000C9465000C946500AC
:100040000C9465000C9465000C9465000C9465009C
:100050000C9465000C9465000C9465000C9465008C
:100060000C9465000C9465000C9465000C9465007C
:100070000C9465000C9465000C9465000C9465006C
:100080000C9465000C9465000C946500AF00B500FD
:10009000DA00F3000B0117011D01230111241FBE1B
:1000A000CFEFD0E4DEBFCDBF11E0A0E0B1E0EAE5E4
:1000B000F3E000E00BBF02C007900D92AE30B10735
:1000C000D9F70E947A010C94AB010C940000CF93F5
:1000D000DF9300D01F92CDB7DEB789837B836A831D
:1000E00089818A3031F48A819B81BC018DE00E9434
:1000F000670080EC90E0FC018081882F90E08072A6
:100100009927892BB1F386EC90E02981FC012083AB
:1001100080E090E00F900F900F90DF91CF910895C5
:100120002F923F92CF93DF9300D0CDB7DEB7C101BE
:100130003A822982FC0120813181990140E050E01E
:10014000E0E0F0E067E070E02E1B3F0B6217730702
:1001500008F47FC02A5B3F4FF9010C94A20121E013
:1001600030E0FC013183208381C020E230E0F901DE
:100170002081213031F422E030E0FC013183208302
:100180006EC020E230E0F9012081223031F423E01A
:1001900030E0FC013183208362C020E230E0F901CD
:1001A0002081233009F05BC024E030E0FC01318382
:1001B000208355C020E230E0F9012081222331F470
:1001C00025E030E0FC01318320834BC020E230E0A9
:1001D000F9012081233009F044C024E030E0FC0123
:1001E000318320833EC020E230E0F90120812223C8
:1001F00031F426E030E0FC013183208334C020E27A
:1002000030E0F9012081233071F524E030E0FC0179
:100210003183208328C020E230E0F90120812223AD
:1002200021F527E030E0FC01318320831EC021E06E
:1002300030E0FC013183208319C021E030E0FC0173
:100240003183208313C021E030E0FC01318320831F
:100250000DC021E030E0FC013183208307C00000A5
:1002600005C0000003C0000001C00000FC01808147
:1002700091818530910591F08630910518F4892B94
:1002800039F030C086309105B9F0079719F12AC0CE
:1002900088E290E027E0FC01208324C088E290E01F
:1002A000FC0180818930D8F488E290E0FC01208153
:1002B0002F5FFC01208316C088E290E0FC01808162
:1002C000882379F088E290E0FC0120812150FC0134
:1002D000208308C088E290E0FC01108203C0000087
:1002E00001C0000000000F900F90DF91CF913F9070
:1002F0002F9008952F923F92CF93DF9300D0CDB7E8
:10030000DEB781E290E0FC01108282E290E02FEF04
:10031000FC01208387E290E02FEFFC01208388E23C
:1003200090E0FC01108288E290E027E0FC0120834D
:1003300080E090E09A838983CE0101961C010E949F
:100340009000FACFEE0FFF1F0024001C0BBE079099
:0A035000F691E02D0994F894FFCF18
:0E035A0000000002000000006700000000002C
:00000001FF
