:100000000C9446000C945D000C945D000C945D0013
:100010000C945D000C945D000C945D000C945D00EC
:100020000C945D000C945D000C945D000C945D00DC
:100030000C945D000C945D000C945D000C945D00CC
:100040000C945D000C945D000C945D000C945D00BC
:100050000C945D000C945D000C945D000C945D00AC
:100060000C945D000C945D000C945D000C945D009C
:100070000C945D000C945D000C945D000C945D008C
:100080000C945D000C945D000C945D0011241FBE67
:10009000CFEFD0E4DEBFCDBF11E0A0E0B1E0E6EFEE
:1000A000F2E000E00BBF02C007900D92AE30B10746
:1000B000D9F70E9451010C9479010C940000CF9360
:1000C000DF9300D01F92CDB7DEB789837B836A832D
:1000D00089818A3031F48A819B81BC018DE00E9444
:1000E0005F0080EC90E0FC018081882F90E08072BE
:1000F0009927892BB1F386EC90E02981FC012083BC
:1001000080E090E00F900F900F90DF91CF910895D5
:100110002F923F92CF93DF9300D0CDB7DEB7C101CE
:100120003A822982FC01208131812230310509F493
:1001300041C02330310538F42115310589F02130D3
:100140003105A1F061C02430310509F451C02430DB
:10015000310508F447C02530310509F44FC054C0BB
:1001600021E030E0FC013183208357C020E230E001
:10017000F9012081213031F423E030E0FC013183AA
:10018000208348C020E230E0F9012081223031F4A0
:1001900024E030E0FC01318320833CC020E230E0E9
:1001A000F90120812330B1F525E030E0FC013183F5
:1001B000208330C020E230E0F9012081222331F495
:1001C00021E030E0FC013183208326C020E230E0D2
:1001D000F9012081233001F525E030E0FC01318375
:1001E00020831AC022E030E0FC013183208315C057
:1001F00022E030E0FC01318320830FC022E030E0B8
:10020000FC013183208309C021E030E0FC0131830F
:10021000208303C0000001C00000FC0180819181A7
:100220008330910591F08430910518F4892B39F0D1
:1002300030C084309105B9F0059719F12AC088E2E1
:1002400090E027E0FC01208324C088E290E0FC01DC
:1002500080818930D8F488E290E0FC0120812F5F12
:10026000FC01208316C088E290E0FC018081882395
:1002700079F088E290E0FC0120812150FC0120838C
:1002800008C088E290E0FC01108203C0000001C0B9
:10029000000000000F900F90DF91CF913F902F90C2
:1002A00008952F923F92CF93DF9300D0CDB7DEB762
:1002B00081E290E0FC01108282E290E02FEFFC01ED
:1002C000208387E290E02FEFFC01208388E290E01A
:1002D000FC01108288E290E027E0FC01208380E0AE
:1002E00090E09A838983CE0101961C010E948800C8
:0602F000FACFF894FFCFE5
:0E02F60000000002000000005F000000000099
:00000001FF
