:100000000C9446000C945D000C945D000C945D0013
:100010000C945D000C945D000C945D000C945D00EC
:100020000C945D000C945D000C945D000C945D00DC
:100030000C945D000C945D000C945D000C945D00CC
:100040000C945D000C945D000C945D000C945D00BC
:100050000C945D000C945D000C945D000C945D00AC
:100060000C945D000C945D000C945D000C945D009C
:100070000C945D000C945D000C945D000C945D008C
:100080000C945D000C945D000C945D0011241FBE67
:10009000CFEFD0E4DEBFCDBF11E0A0E0B1E0ECEEE9
:1000A000F2E000E00BBF02C007900D92AE30B10746
:1000B000D9F70E9448010C9474010C940000CF936E
:1000C000DF9300D01F92CDB7DEB789837B836A832D
:1000D00089818A3031F48A819B81BC018DE00E9444
:1000E0005F0080EC90E0FC018081882F90E08072BE
:1000F0009927892BB1F386EC90E02981FC012083BC
:1001000080E090E00F900F900F90DF91CF910895D5
:100110002F923F92CF93DF9300D0CDB7DEB7C101CE
:100120003A822982FC01208131812230310529F176
:100130002330310538F42115310561F021303105C6
:1001400079F063C023303105B1F12430310509F471
:1001500050C05BC021E030E0FC01318320835EC0F1
:1001600020E230E0F9012081243009F054C022E07F
:1001700030E0FC01318320834EC020E230E0F90101
:100180002081222331F423E030E0FC0131832083FD
:1001900045C020E230E0F9012081243031F422E032
:1001A00030E0FC013183208339C021E030E0FC01E4
:1001B0003183208333C020E230E0F90120812230F6
:1001C00031F424E030E0FC013183208327C020E2B9
:1001D00030E0F9012081222331F423E030E0FC01FA
:1001E000318320831BC021E030E0FC013183208378
:1001F00015C020E230E0F9012081203871F421E0BF
:1002000030E0FC013183208308C021E030E0FC01B4
:100210003183208303C0000001C00000FC01808105
:10022000918182309105A9F08330910518F40197EE
:1002300039F026C08330910591F00497B1F020C0C9
:1002400088E290E0FC01108285E290E0FC011082DF
:1002500017C088E290E021E0FC01208311C088E211
:1002600090E022E0FC0120830BC088E290E023E0D4
:10027000FC01208385E290E021E0FC012083000066
:1002800000000F900F90DF91CF913F902F90089535
:100290002F923F92CF93DF9300D0CDB7DEB781E2AC
:1002A00090E0FC01108282E290E02FEFFC012083BD
:1002B00084E290E02FEFFC01208385E290E0FC01D6
:1002C000108287E290E02FEFFC01208388E290E02B
:1002D000FC01108281E090E09A838983CE0101962F
:0C02E0001C010E948800FACFF894FFCFA8
:0E02EC0000000002000000005F0000000000A3
:00000001FF
