:100000000C9446000C945D000C945D000C945D0013
:100010000C945D000C945D000C945D000C945D00EC
:100020000C945D000C945D000C945D000C945D00DC
:100030000C945D000C945D000C945D000C945D00CC
:100040000C945D000C945D000C945D000C945D00BC
:100050000C945D000C945D000C945D000C945D00AC
:100060000C945D000C945D000C945D000C945D009C
:100070000C945D000C945D000C945D000C945D008C
:100080000C945D000C945D000C945D0011241FBE67
:10009000CFEFD0E4DEBFCDBF11E0A0E0B1E0E2E9F8
:1000A000F3E000E00BBF02C007900D92AE30B10745
:1000B000D9F70E948E010C94C7010C940000CF93D5
:1000C000DF9300D01F92CDB7DEB789837B836A832D
:1000D00089818A3031F48A819B81BC018DE00E9444
:1000E0005F0080EC90E0FC018081882F90E08072BE
:1000F0009927892BB1F386EC90E02981FC012083BC
:1001000080E090E00F900F900F90DF91CF910895D5
:100110002F923F92CF93DF9300D0CDB7DEB7C101CE
:100120003A822982FC01278130852230310551F144
:100130002330310538F42115310561F021303105C6
:1001400079F094C02330310599F12430310509F458
:1001500068C08CC021E030E0FC013087278391C06B
:1001600020E230E0F9012081222309F485C021E05A
:1001700030E0FC013683258322E030E0FC0130874B
:1001800027837AC020E230E0F9012081222351F454
:1001900022E030E0FC013683258323E030E0FC01DF
:1001A0003087278322E030E0FC013683258369C055
:1001B00020E230E0F9014081FC012481222F30E06F
:1001C000280F391FF9012081421759F423E030E04C
:1001D000FC013683258322E030E0FC013087278351
:1001E0004DC0FC012481243061F423E230E0F901A8
:1001F0002081222331F424E030E0FC013087278382
:100200003DC0FC0124812430C9F523E230E0F9012E
:100210002081213099F521E030E0FC0130872783EF
:100220002DC020E230E0F9012081203831F421E0B6
:1002300030E0FC013087278323C020E230E0F90161
:100240004081FC012481222F30E0280F391FF90161
:1002500020814217A9F424E030E0FC013683258395
:1002600022E030E0FC01308727830AC021E030E043
:10027000FC013087278305C0000003C0000001C0D7
:100280000000FC012781308522303105D1F0233078
:10029000310520F42130310541F038C023303105DB
:1002A00009F12430310521F131C028E230E0F901B3
:1002B000108225E230E0F901108220E0FC01248365
:1002C00025C0FC01258136812230310529F0FC0151
:1002D00024812F5FFC01248388E290E021E0FC016F
:1002E000208314C088E290E022E0FC0120830EC04D
:1002F00020E0FC01248388E290E023E0FC012083DD
:1003000085E290E021E0FC012083000000000F90D6
:100310000F90DF91CF913F902F9008952F923F92B1
:10032000CF93DF93CDB7DEB72D970FB6F894DEBF2E
:100330000FBECDBF81E290E0FC01108282E290E02E
:100340002FEFFC01208384E290E02FEFFC0120835B
:1003500085E290E0FC01108287E290E02FEFFC0143
:10036000208388E290E0FC01108284E0898381E0B0
:100370008A8382E08B8381E08C8381E090E099879F
:100380008887CE0101961C010E948800FACFF8945C
:02039000FFCF9D
:0E03920000000002000000005F0000000000FC
:00000001FF
