:100000000C9446000C945D000C945D000C945D0013
:100010000C945D000C945D000C945D000C945D00EC
:100020000C945D000C945D000C945D000C945D00DC
:100030000C945D000C945D000C945D000C945D00CC
:100040000C945D000C945D000C945D000C945D00BC
:100050000C945D000C945D000C945D000C945D00AC
:100060000C945D000C945D000C945D000C945D009C
:100070000C945D000C945D000C945D000C945D008C
:100080000C945D000C945D000C945D0011241FBE67
:10009000CFEFD0E4DEBFCDBF11E0A0E0B1E0E0E300
:1000A000F2E000E00BBF02C007900D92AE30B10746
:1000B000D9F70E94F3000C9416010C940000CF9322
:1000C000DF9300D01F92CDB7DEB789837B836A832D
:1000D00089818A3031F48A819B81BC018DE00E9444
:1000E0005F0080EC90E0FC018081882F90E08072BE
:1000F0009927892BB1F386EC90E02981FC012083BC
:1001000080E090E00F900F900F90DF91CF910895D5
:100110002F923F92CF93DF9300D0CDB7DEB7C101CE
:100120003A822982FC01208131812130310569F038
:100130002130310520F022303105C9F02AC021E0FC
:1001400030E0FC01318320832AC020E230E0F90155
:100150002081213031F422E030E0FC013183208322
:100160001EC021E030E0FC013183208318C020E272
:1001700030E0F9012081213031F421E030E0FC0150
:10018000318320830CC022E030E0FC0131832083E6
:1001900006C021E030E0FC01318320830000FC0137
:1001A000808191818130910551F08130910518F065
:1001B000029759F010C085E290E0FC01108285E2C0
:1001C00090E021E0FC01208306C085E290E022E07F
:1001D000FC012083000000000F900F90DF91CF9171
:1001E0003F902F9008952F923F92CF93DF9300D0AE
:1001F000CDB7DEB781E290E0FC01108282E290E0B0
:100200002FEFFC01208384E290E02FEFFC0120839C
:1002100085E290E0FC01108280E090E09A8389837F
:10022000CE0101961C010E948800FACFF894FFCFFE
:0E02300000000002000000005F00000000005F
:00000001FF
