:100000000C9446000C945D000C945D000C945D0013
:100010000C945D000C945D000C945D000C945D00EC
:100020000C945D000C945D000C945D000C945D00DC
:100030000C945D000C945D000C945D000C945D00CC
:100040000C945D000C945D000C945D000C945D00BC
:100050000C945D000C945D000C945D000C945D00AC
:100060000C945D000C945D000C945D000C945D009C
:100070000C945D000C945D000C945D000C945D008C
:100080000C945D000C945D000C945D0011241FBE67
:10009000CFEFD0E4DEBFCDBF11E0A0E0B1E0EEE6EF
:1000A000F3E000E00BBF02C007900D92AE30B10745
:1000B000D9F70E948C010C94B5010C940000CF93E9
:1000C000DF9300D01F92CDB7DEB789837B836A832D
:1000D00089818A3031F48A819B81BC018DE00E9444
:1000E0005F0080EC90E0FC018081882F90E08072BE
:1000F0009927892BB1F386EC90E02981FC012083BC
:1001000080E090E00F900F900F90DF91CF910895D5
:100110002F923F92CF93DF9300D0CDB7DEB7C101CE
:100120003A822982FC01228133812230310509F48F
:1001300042C02330310538F42115310589F02130D2
:100140003105A1F09CC02430310509F482C024306F
:10015000310508F473C02530310509F485C08FC01E
:1001600021E030E0FC013383228392C020E230E0C2
:10017000F9012081213031F423E030E0FC013383A8
:10018000228383C020E230E0F9012081223031F463
:1001900024E030E0FC013383228377C020E230E0AA
:1001A000F9012081233009F070C025E030E0FC0126
:1001B000338322836AC020E230E0F90120812223C8
:1001C00031F421E030E0FC013383228360C0FC0184
:1001D000208131812330310561F020E230E0F901E6
:1001E0002081213031F423E030E0FC01338322838D
:1001F00024C0FC01208131812430310561F020E2EE
:1002000030E0F9012081223031F424E030E0FC01BB
:100210003383228312C0FC012081318125303105D6
:10022000B1F120E230E0F9012081233081F525E0B1
:1002300030E0FC01338322832AC029C023E030E070
:10024000FC013183208322E030E0FC0133832283F0
:100250001FC025E030E0FC013183208322E030E044
:10026000FC013383228314C025E030E0FC0131839C
:10027000208322E030E0FC013383228309C021E0A7
:1002800030E0FC013383228303C0000001C0000082
:10029000FC01828193818330910591F08430910536
:1002A00018F4892B39F030C084309105B9F00597E6
:1002B00019F12AC088E290E027E0FC01208324C0E5
:1002C00088E290E0FC0180818930D8F488E290E0F7
:1002D000FC0120812F5FFC01208316C088E290E0A2
:1002E000FC018081882379F088E290E0FC01208184
:1002F0002150FC01208308C088E290E0FC011082BC
:1003000003C0000001C0000000000F900F90DF91BB
:10031000CF913F902F9008952F923F92CF93DF93EC
:1003200000D000D0CDB7DEB781E290E0FC011082B2
:1003300082E290E02FEFFC01208387E290E02FEF34
:10034000FC01208388E290E0FC01108288E290E0CA
:1003500027E0FC01208380E090E09C838B83CE012A
:0E03600001961C010E948800FACFF894FFCF8E
:0E036E0000000002000000005F000000000020
:00000001FF
