:100000000C9446000C945D000C945D000C945D0013
:100010000C945D000C945D000C945D000C945D00EC
:100020000C945D000C945D000C945D000C945D00DC
:100030000C945D000C945D000C945D000C945D00CC
:100040000C945D000C945D000C945D000C945D00BC
:100050000C945D000C945D000C945D000C945D00AC
:100060000C945D000C945D000C945D000C945D009C
:100070000C945D000C945D000C945D000C945D008C
:100080000C945D000C945D000C945D0011241FBE67
:10009000CFEFD0E4DEBFCDBF11E0A0E0B1E0EAE8F1
:1000A000F3E000E00BBF02C007900D92AE30B10745
:1000B000D9F70E9497010C94C3010C940000CF93D0
:1000C000DF9300D01F92CDB7DEB789837B836A832D
:1000D00089818A3031F48A819B81BC018DE00E9444
:1000E0005F0080EC90E0FC018081882F90E08072BE
:1000F0009927892BB1F386EC90E02981FC012083BC
:1001000080E090E00F900F900F90DF91CF910895D5
:100110002F923F92CF93DF9300D0CDB7DEB7C101CE
:100120003A822982FC01208131812230310531F16E
:100130002330310538F42115310569F021303105BE
:1001400081F0AEC02330310509F449C024303105B7
:1001500009F48EC0A5C021E030E0FC01318320838A
:10016000ACC020E230E0F9012081243009F09EC0CB
:1001700022E030E0FC013183208398C020E230E0AF
:10018000F9012081222331F423E030E0FC013183A6
:1001900020838EC020E230E0F9012081243031F448
:1001A00022E030E0FC013183208382C023E230E092
:1001B000F9012081222331F421E030E0FC01318378
:1001C000208376C023E230E0F9012081213009F05C
:1001D0006FC024E030E0FC013183208369C020E25D
:1001E00030E0F9012081223061F423E230E0F901AE
:1001F0002081222331F424E030E0FC01318320838C
:1002000036C020E230E0F9012081223061F423E29F
:1002100030E0F9012081213031F421E030E0FC01AF
:100220003183208324C020E230E0F90120812223A1
:1002300031F423E030E0FC01318320833BC023E232
:1002400030E0F9012081222331F421E030E0FC018B
:10025000318320832FC023E230E0F9012081213057
:1002600049F524E030E0FC013183208323C022C023
:1002700020E230E0F9012081203831F421E030E043
:10028000FC013183208318C020E230E0F901208195
:10029000243091F422E030E0FC01318320830CC053
:1002A00021E030E0FC013183208307C0000005C05D
:1002B000000003C0000001C00000FC0180819181AA
:1002C00082309105A9F08330910518F4019739F037
:1002D00026C08330910591F00497B1F020C088E2E8
:1002E00090E0FC01108285E290E0FC01108217C0D2
:1002F00088E290E021E0FC01208311C088E290E0D8
:1003000022E0FC0120830BC088E290E023E0FC01A6
:10031000208385E290E021E0FC01208300000000C2
:100320000F900F90DF91CF913F902F9008952F92D3
:100330003F92CF93DF9300D0CDB7DEB781E290E05C
:10034000FC01108282E290E02FEFFC01208384E226
:1003500090E02FEFFC01208385E290E0FC01108209
:1003600087E290E02FEFFC01208388E290E0FC011F
:10037000108281E090E09A838983CE0101961C016E
:0A0380000E948800FACFF894FFCF26
:0E038A0000000002000000005F000000000004
:00000001FF
