:100000000C9446000C945D000C945D000C945D0013
:100010000C945D000C945D000C945D000C945D00EC
:100020000C945D000C945D000C945D000C945D00DC
:100030000C945D000C945D000C945D000C945D00CC
:100040000C945D000C945D000C945D000C945D00BC
:100050000C945D000C945D000C945D000C945D00AC
:100060000C945D000C945D000C945D000C945D009C
:100070000C945D000C945D000C945D000C945D008C
:100080000C945D000C945D000C945D0011241FBE67
:10009000CFEFD0E4DEBFCDBF11E0A0E0B1E0E6E8F5
:1000A000F2E000E00BBF02C007900D92AE30B10746
:1000B000D9F70E941E010C9441010C940000CF93CB
:1000C000DF9300D01F92CDB7DEB789837B836A832D
:1000D00089818A3031F48A819B81BC018DE00E9444
:1000E0005F0080EC90E0FC018081882F90E08072BE
:1000F0009927892BB1F386EC90E02981FC012083BC
:1001000080E090E00F900F900F90DF91CF910895D5
:100110002F923F92CF93DF9300D0CDB7DEB7C101CE
:100120003A822982FC01208131812230310549F156
:100130002330310538F42115310559F021303105CE
:1001400071F043C02330310541F12430310589F18C
:100150003CC021E030E0FC013183208341C020E23B
:1001600030E0F9012081213031F422E030E0FC015F
:100170003183208335C021E030E0FC0131832083CE
:100180002FC020E230E0F9012081222321F523E075
:1001900030E0FC01318320831EC020E230E0F90111
:1001A00020812130D1F424E030E0FC013183208330
:1001B00014C020E230E0F9012081222381F421E003
:1001C00030E0FC01318320830AC021E030E0FC01F3
:1001D0003183208305C0000003C0000001C000007F
:1001E000FC01808191818130910571F08130910510
:1001F00030F08230910571F0049791F017C085E2DC
:1002000090E0FC01108212C085E290E021E0FC0148
:1002100020830CC085E290E022E0FC01208306C030
:1002200085E290E021E0FC012083000000000F90B7
:100230000F90DF91CF913F902F9008952F923F9292
:10024000CF93DF9300D0CDB7DEB781E290E0FC0121
:10025000108282E290E02FEFFC01208384E290E0A4
:100260002FEFFC01208385E290E0FC01108280E00A
:1002700090E09A838983CE0101961C010E94880038
:06028000FACFF894FFCF55
:0E02860000000002000000005F000000000009
:00000001FF
